{
  "contractName": "CarRentalService",
  "abi": [
    {
      "inputs": [
        {
          "internalType": "uint256",
          "name": "_availableCars",
          "type": "uint256"
        }
      ],
      "stateMutability": "payable",
      "type": "constructor",
      "payable": true
    },
    {
      "inputs": [],
      "name": "availableCars",
      "outputs": [
        {
          "internalType": "uint256",
          "name": "",
          "type": "uint256"
        }
      ],
      "stateMutability": "view",
      "type": "function",
      "constant": true
    },
    {
      "inputs": [
        {
          "internalType": "address",
          "name": "",
          "type": "address"
        }
      ],
      "name": "customerBalance",
      "outputs": [
        {
          "internalType": "uint256",
          "name": "",
          "type": "uint256"
        }
      ],
      "stateMutability": "view",
      "type": "function",
      "constant": true
    },
    {
      "inputs": [],
      "name": "owner",
      "outputs": [
        {
          "internalType": "address",
          "name": "",
          "type": "address"
        }
      ],
      "stateMutability": "view",
      "type": "function",
      "constant": true
    },
    {
      "inputs": [],
      "name": "rentProfit",
      "outputs": [
        {
          "internalType": "uint256",
          "name": "",
          "type": "uint256"
        }
      ],
      "stateMutability": "view",
      "type": "function",
      "constant": true
    },
    {
      "inputs": [],
      "name": "rentalPricePerDay",
      "outputs": [
        {
          "internalType": "uint256",
          "name": "",
          "type": "uint256"
        }
      ],
      "stateMutability": "view",
      "type": "function",
      "constant": true
    },
    {
      "inputs": [],
      "name": "rentalPriceSUV",
      "outputs": [
        {
          "internalType": "uint256",
          "name": "",
          "type": "uint256"
        }
      ],
      "stateMutability": "view",
      "type": "function",
      "constant": true
    },
    {
      "inputs": [],
      "name": "rentalPriceSedan",
      "outputs": [
        {
          "internalType": "uint256",
          "name": "",
          "type": "uint256"
        }
      ],
      "stateMutability": "view",
      "type": "function",
      "constant": true
    },
    {
      "inputs": [],
      "name": "rentalPriceTruck",
      "outputs": [
        {
          "internalType": "uint256",
          "name": "",
          "type": "uint256"
        }
      ],
      "stateMutability": "view",
      "type": "function",
      "constant": true
    },
    {
      "inputs": [
        {
          "internalType": "address",
          "name": "",
          "type": "address"
        }
      ],
      "name": "rentedCars",
      "outputs": [
        {
          "internalType": "uint256",
          "name": "",
          "type": "uint256"
        }
      ],
      "stateMutability": "view",
      "type": "function",
      "constant": true
    },
    {
      "inputs": [],
      "name": "getRentalServiceBalance",
      "outputs": [
        {
          "internalType": "uint256",
          "name": "_balance",
          "type": "uint256"
        }
      ],
      "stateMutability": "view",
      "type": "function",
      "constant": true
    },
    {
      "inputs": [
        {
          "internalType": "uint256",
          "name": "_quantity",
          "type": "uint256"
        }
      ],
      "name": "restock",
      "outputs": [],
      "stateMutability": "nonpayable",
      "type": "function"
    },
    {
      "inputs": [
        {
          "internalType": "uint256",
          "name": "_days",
          "type": "uint256"
        }
      ],
      "name": "rentCar_Day",
      "outputs": [],
      "stateMutability": "payable",
      "type": "function",
      "payable": true
    },
    {
      "inputs": [
        {
          "internalType": "uint256",
          "name": "_days",
          "type": "uint256"
        }
      ],
      "name": "rentCar_Sedan",
      "outputs": [],
      "stateMutability": "payable",
      "type": "function",
      "payable": true
    },
    {
      "inputs": [
        {
          "internalType": "uint256",
          "name": "_days",
          "type": "uint256"
        }
      ],
      "name": "rentCar_SUV",
      "outputs": [],
      "stateMutability": "payable",
      "type": "function",
      "payable": true
    },
    {
      "inputs": [
        {
          "internalType": "uint256",
          "name": "_days",
          "type": "uint256"
        }
      ],
      "name": "rentCar_Truck",
      "outputs": [],
      "stateMutability": "payable",
      "type": "function",
      "payable": true
    },
    {
      "inputs": [],
      "name": "returnCar",
      "outputs": [],
      "stateMutability": "nonpayable",
      "type": "function"
    },
    {
      "inputs": [],
      "name": "returnCarSedan",
      "outputs": [],
      "stateMutability": "nonpayable",
      "type": "function"
    },
    {
      "inputs": [],
      "name": "returnCarSUV",
      "outputs": [],
      "stateMutability": "nonpayable",
      "type": "function"
    },
    {
      "inputs": [],
      "name": "returnCarTruck",
      "outputs": [],
      "stateMutability": "nonpayable",
      "type": "function"
    }
  ],
  "bytecode": "0x6080604052604051610b0b380380610b0b83398101604081905261002291610071565b600080546001600160a01b03191633179055670de0b6b3a76400006001819055600355671bc16d674ec800006004556729a2241af62c00006005556706f05b59d3b2000060065560025561008a565b60006020828403121561008357600080fd5b5051919050565b610a72806100996000396000f3fe6080604052600436106101145760003560e01c80638ac09e7d116100a0578063a9dab32011610064578063a9dab320146102a6578063c21a702a146102b9578063d1a9ef1f146102d9578063e88cfb14146102ee578063f531d90a1461030157600080fd5b80638ac09e7d146102035780638da5cb5b1461021657806397bb58051461024e578063a283a3331461027b578063a41a639f1461029157600080fd5b80635e7960a8116100e75780635e7960a81461019c5780635fe53822146101af578063770b9849146101c2578063809c9061146101d857806383d8b886146101ee57600080fd5b806313f7638f146101195780633077576c146101425780633192bc551461015857806337ebe47b1461016f575b600080fd5b34801561012557600080fd5b5061012f60035481565b6040519081526020015b60405180910390f35b34801561014e57600080fd5b5061012f60065481565b34801561016457600080fd5b5061016d610317565b005b34801561017b57600080fd5b5061012f61018a366004610938565b60076020526000908152604090205481565b61016d6101aa366004610968565b6103fe565b61016d6101bd366004610968565b610530565b3480156101ce57600080fd5b5061012f60015481565b3480156101e457600080fd5b5061012f60045481565b3480156101fa57600080fd5b5061016d61060c565b61016d610211366004610968565b61065b565b34801561022257600080fd5b50600054610236906001600160a01b031681565b6040516001600160a01b039091168152602001610139565b34801561025a57600080fd5b5061012f610269366004610938565b60086020526000908152604090205481565b34801561028757600080fd5b5061012f60025481565b34801561029d57600080fd5b5061016d61073c565b3480156102b257600080fd5b504761012f565b3480156102c557600080fd5b5061016d6102d4366004610968565b610788565b3480156102e557600080fd5b5061016d61080c565b61016d6102fc366004610968565b61085b565b34801561030d57600080fd5b5061012f60055481565b3360009081526008602052604090205461034c5760405162461bcd60e51b815260040161034390610981565b60405180910390fd5b3360009081526008602052604081205460065460035491929161036f90846109ce565b61037991906109eb565b3360009081526007602052604081208054929350839290919061039d9084906109eb565b909155505033600090815260086020526040812081905560028054600192906103c79084906109fe565b9091555050604051339082156108fc029083906000818181858888f193505050501580156103f9573d6000803e3d6000fd5b505050565b8060035461040c91906109ce565b34101561042b5760405162461bcd60e51b815260040161034390610a11565b6000600254116104735760405162461bcd60e51b815260206004820152601360248201527227379029b2b230b71030bb30b4b630b136329760691b6044820152606401610343565b33600090815260086020526040902054156104df5760405162461bcd60e51b815260206004820152602660248201527f596f752063616e206f6e6c792072656e74206f6e6520536564616e2061742061604482015265103a34b6b29760d11b6064820152608401610343565b33600090815260076020526040812080543492906104fe9084906109fe565b909155505033600090815260086020526040812082905560028054600192906105289084906109eb565b909155505050565b8060045461053e91906109ce565b34101561055d5760405162461bcd60e51b815260040161034390610a11565b6000600254116105a35760405162461bcd60e51b815260206004820152601160248201527027379029aaab1030bb30b4b630b136329760791b6044820152606401610343565b33600090815260086020526040902054156104df5760405162461bcd60e51b8152602060048201526024808201527f596f752063616e206f6e6c792072656e74206f6e65205355562061742061207460448201526334b6b29760e11b6064820152608401610343565b336000908152600860205260409020546106385760405162461bcd60e51b815260040161034390610981565b3360009081526008602052604081205460065460055491929161036f90846109ce565b8060055461066991906109ce565b3410156106885760405162461bcd60e51b815260040161034390610a11565b6000600254116106d05760405162461bcd60e51b81526020600482015260136024820152722737902a393ab1b59030bb30b4b630b136329760691b6044820152606401610343565b33600090815260086020526040902054156104df5760405162461bcd60e51b815260206004820152602660248201527f596f752063616e206f6e6c792072656e74206f6e6520747275636b2061742061604482015265103a34b6b29760d11b6064820152608401610343565b336000908152600860205260409020546107685760405162461bcd60e51b815260040161034390610981565b3360009081526008602052604081205460015490919061037990836109ce565b6000546001600160a01b031633146107fa5760405162461bcd60e51b815260206004820152602f60248201527f4f6e6c7920746865206f776e65722063616e20726573746f636b20746869732060448201526e3932b73a30b61039b2b93b34b1b29760891b6064820152608401610343565b806002600082825461052891906109fe565b336000908152600860205260409020546108385760405162461bcd60e51b815260040161034390610981565b3360009081526008602052604081205460065460045491929161036f90846109ce565b8060015461086991906109ce565b3410156108885760405162461bcd60e51b815260040161034390610a11565b6000600254116108cf5760405162461bcd60e51b815260206004820152601260248201527127379031b0b9399030bb30b4b630b136329760711b6044820152606401610343565b33600090815260086020526040902054156104df5760405162461bcd60e51b8152602060048201526024808201527f596f752063616e206f6e6c792072656e74206f6e65206361722061742061207460448201526334b6b29760e11b6064820152608401610343565b60006020828403121561094a57600080fd5b81356001600160a01b038116811461096157600080fd5b9392505050565b60006020828403121561097a57600080fd5b5035919050565b6020808252601c908201527f596f7520686176656e27742072656e74656420616e7920636172732e00000000604082015260600190565b634e487b7160e01b600052601160045260246000fd5b80820281158282048414176109e5576109e56109b8565b92915050565b818103818111156109e5576109e56109b8565b808201808211156109e5576109e56109b8565b6020808252601190820152702737ba1032b737bab3b410333ab732399760791b60408201526060019056fea2646970667358221220efa83edd4256a116f1cff5a3965f52282ff32b917dd1792ea3e06152250318f864736f6c63430008130033",
  "immutableReferences": {},
  "source": "// SPDX-License-Identifier: MIT\r\n\r\npragma solidity ^0.8.19;\r\n\r\ncontract CarRentalService {\r\n    // State variables\r\n    address public owner;\r\n    uint public rentalPricePerDay;\r\n    uint public availableCars;\r\n    uint public rentalPriceSedan;\r\n    uint public rentalPriceSUV;\r\n    uint public rentalPriceTruck;\r\n    uint public rentProfit;\r\n\r\n    mapping (address => uint) public customerBalance;\r\n    mapping (address => uint) public rentedCars;\r\n\r\n    // Constructor\r\n    constructor(uint _availableCars) payable {\r\n        owner = msg.sender;\r\n        rentalPricePerDay = 1 ether;\r\n        rentalPriceSedan = 1 ether;\r\n        rentalPriceSUV = 2 ether;\r\n        rentalPriceTruck = 3 ether;\r\n        rentProfit = 0.5 ether;\r\n        availableCars = _availableCars;\r\n    }\r\n\r\n    // Functions\r\n    function getRentalServiceBalance() public view returns (uint _balance) {\r\n        return address(this).balance;\r\n    }\r\n\r\n    function restock(uint _quantity) public {\r\n        require(msg.sender == owner, \"Only the owner can restock this rental service.\");\r\n        availableCars += _quantity;\r\n    }\r\n\r\n    function rentCar_Day(uint _days) public payable {\r\n        require(msg.value >= rentalPricePerDay * _days, \"Not enough funds.\");\r\n        require(availableCars > 0, \"No cars available.\");\r\n        require(rentedCars[msg.sender] == 0, \"You can only rent one car at a time.\");\r\n\r\n        customerBalance[msg.sender] += msg.value;\r\n        rentedCars[msg.sender] = _days;\r\n        availableCars -= 1;\r\n    }\r\n        function rentCar_Sedan(uint _days) public payable {\r\n        require(msg.value >= rentalPriceSedan * _days, \"Not enough funds.\");\r\n        require(availableCars > 0, \"No Sedan available.\");\r\n        require(rentedCars[msg.sender] == 0, \"You can only rent one Sedan at a time.\");\r\n\r\n        customerBalance[msg.sender] += msg.value;\r\n        rentedCars[msg.sender] = _days;\r\n        availableCars -= 1;\r\n    }\r\n        function rentCar_SUV(uint _days) public payable {\r\n        require(msg.value >= rentalPriceSUV * _days, \"Not enough funds.\");\r\n        require(availableCars > 0, \"No SUV available.\");\r\n        require(rentedCars[msg.sender] == 0, \"You can only rent one SUV at a time.\");\r\n\r\n        customerBalance[msg.sender] += msg.value;\r\n        rentedCars[msg.sender] = _days;\r\n        availableCars -= 1;\r\n    }\r\n        function rentCar_Truck(uint _days) public payable {\r\n        require(msg.value >= rentalPriceTruck * _days, \"Not enough funds.\");\r\n        require(availableCars > 0, \"No Truck available.\");\r\n        require(rentedCars[msg.sender] == 0, \"You can only rent one truck at a time.\");\r\n\r\n        customerBalance[msg.sender] += msg.value;\r\n        rentedCars[msg.sender] = _days;\r\n        availableCars -= 1;\r\n    }\r\n\r\n    function returnCar() public {\r\n        require(rentedCars[msg.sender] > 0, \"You haven't rented any cars.\");\r\n        \r\n        uint daysRented = rentedCars[msg.sender];\r\n        uint refundAmount = daysRented * rentalPricePerDay;\r\n        \r\n        customerBalance[msg.sender] -= refundAmount;\r\n        rentedCars[msg.sender] = 0;\r\n        availableCars += 1;\r\n        \r\n        payable(msg.sender).transfer(refundAmount);\r\n    }\r\n        function returnCarSedan() public {\r\n        require(rentedCars[msg.sender] > 0, \"You haven't rented any cars.\");\r\n        \r\n        uint daysRented = rentedCars[msg.sender];\r\n        uint refundAmount = daysRented * rentalPriceSedan - rentProfit;\r\n        \r\n        customerBalance[msg.sender] -= refundAmount;\r\n        rentedCars[msg.sender] = 0;\r\n        availableCars += 1;\r\n        \r\n        payable(msg.sender).transfer(refundAmount);\r\n    }\r\n        function returnCarSUV() public {\r\n        require(rentedCars[msg.sender] > 0, \"You haven't rented any cars.\");\r\n        \r\n        uint daysRented = rentedCars[msg.sender];\r\n        uint refundAmount = daysRented * rentalPriceSUV - rentProfit;\r\n        \r\n        customerBalance[msg.sender] -= refundAmount;\r\n        rentedCars[msg.sender] = 0;\r\n        availableCars += 1;\r\n        \r\n        payable(msg.sender).transfer(refundAmount);\r\n    }\r\n        function returnCarTruck() public {\r\n        require(rentedCars[msg.sender] > 0, \"You haven't rented any cars.\");\r\n        \r\n        uint daysRented = rentedCars[msg.sender];\r\n        uint refundAmount = daysRented * rentalPriceTruck - rentProfit;\r\n        \r\n        customerBalance[msg.sender] -= refundAmount;\r\n        rentedCars[msg.sender] = 0;\r\n        availableCars += 1;\r\n        \r\n        payable(msg.sender).transfer(refundAmount);\r\n    }\r\n}\r\n",
  "compiler": {
    "name": "solc",
    "version": "0.8.19+commit.7dd6d404.Emscripten.clang"
  },
  "schemaVersion": "3.4.13",
  "updatedAt": "2023-04-26T09:07:22.208Z",
  "networkType": "ethereum",
  "devdoc": {
    "kind": "dev",
    "methods": {},
    "version": 1
  },
  "userdoc": {
    "kind": "user",
    "methods": {},
    "version": 1
  }
}