{
  "contractName": "CarRentalService",
  "abi": [
    {
      "inputs": [
        {
          "internalType": "uint256",
          "name": "_availableCars",
          "type": "uint256"
        }
      ],
      "stateMutability": "payable",
      "type": "constructor",
      "payable": true
    },
    {
      "inputs": [],
      "name": "availableCars",
      "outputs": [
        {
          "internalType": "uint256",
          "name": "",
          "type": "uint256"
        }
      ],
      "stateMutability": "view",
      "type": "function",
      "constant": true
    },
    {
      "inputs": [
        {
          "internalType": "address",
          "name": "",
          "type": "address"
        }
      ],
      "name": "customerBalance",
      "outputs": [
        {
          "internalType": "uint256",
          "name": "",
          "type": "uint256"
        }
      ],
      "stateMutability": "view",
      "type": "function",
      "constant": true
    },
    {
      "inputs": [],
      "name": "owner",
      "outputs": [
        {
          "internalType": "address",
          "name": "",
          "type": "address"
        }
      ],
      "stateMutability": "view",
      "type": "function",
      "constant": true
    },
    {
      "inputs": [],
      "name": "rentalPricePerDay",
      "outputs": [
        {
          "internalType": "uint256",
          "name": "",
          "type": "uint256"
        }
      ],
      "stateMutability": "view",
      "type": "function",
      "constant": true
    },
    {
      "inputs": [],
      "name": "rentalPricePerDayPerformance",
      "outputs": [
        {
          "internalType": "uint256",
          "name": "",
          "type": "uint256"
        }
      ],
      "stateMutability": "view",
      "type": "function",
      "constant": true
    },
    {
      "inputs": [],
      "name": "rentalPricePerDaySedan",
      "outputs": [
        {
          "internalType": "uint256",
          "name": "",
          "type": "uint256"
        }
      ],
      "stateMutability": "view",
      "type": "function",
      "constant": true
    },
    {
      "inputs": [],
      "name": "rentalPricePerDaySuv",
      "outputs": [
        {
          "internalType": "uint256",
          "name": "",
          "type": "uint256"
        }
      ],
      "stateMutability": "view",
      "type": "function",
      "constant": true
    },
    {
      "inputs": [
        {
          "internalType": "address",
          "name": "",
          "type": "address"
        }
      ],
      "name": "rentedCars",
      "outputs": [
        {
          "internalType": "uint256",
          "name": "",
          "type": "uint256"
        }
      ],
      "stateMutability": "view",
      "type": "function",
      "constant": true
    },
    {
      "inputs": [],
      "name": "getRentalServiceBalance",
      "outputs": [
        {
          "internalType": "uint256",
          "name": "_balance",
          "type": "uint256"
        }
      ],
      "stateMutability": "view",
      "type": "function",
      "constant": true
    },
    {
      "inputs": [
        {
          "internalType": "uint256",
          "name": "_quantity",
          "type": "uint256"
        }
      ],
      "name": "restock",
      "outputs": [],
      "stateMutability": "nonpayable",
      "type": "function"
    },
    {
      "inputs": [],
      "name": "transferRentalBalanceToOwner",
      "outputs": [],
      "stateMutability": "nonpayable",
      "type": "function"
    },
    {
      "inputs": [
        {
          "internalType": "string",
          "name": "_carChoice",
          "type": "string"
        },
        {
          "internalType": "uint256",
          "name": "_rentDays",
          "type": "uint256"
        }
      ],
      "name": "rentCar_Day",
      "outputs": [],
      "stateMutability": "payable",
      "type": "function",
      "payable": true
    },
    {
      "inputs": [],
      "name": "returnCar",
      "outputs": [],
      "stateMutability": "nonpayable",
      "type": "function"
    }
  ],
  "bytecode": "0x6080604052604051610a42380380610a4283398101604081905261002291610065565b600080546001600160a01b03191633179055671bc16d674ec8000060018190556002556729a2241af62c0000600355673782dace9d90000060045560055561007e565b60006020828403121561007757600080fd5b5051919050565b6109b58061008d6000396000f3fe6080604052600436106100c25760003560e01c8063a283a3331161007f578063abab9b2c11610059578063abab9b2c146101eb578063c21a702a14610200578063d3c9bfc314610220578063ec2249521461023657600080fd5b8063a283a333146101ad578063a41a639f146101c3578063a9dab320146101d857600080fd5b806337ebe47b146100c757806342925ab514610107578063434141c81461011d578063770b9849146101325780638da5cb5b1461014857806397bb580514610180575b600080fd5b3480156100d357600080fd5b506100f46100e2366004610812565b60066020526000908152604090205481565b6040519081526020015b60405180910390f35b34801561011357600080fd5b506100f460045481565b61013061012b366004610858565b61024c565b005b34801561013e57600080fd5b506100f460015481565b34801561015457600080fd5b50600054610168906001600160a01b031681565b6040516001600160a01b0390911681526020016100fe565b34801561018c57600080fd5b506100f461019b366004610812565b60076020526000908152604090205481565b3480156101b957600080fd5b506100f460055481565b3480156101cf57600080fd5b506101306104dc565b3480156101e457600080fd5b50476100f4565b3480156101f757600080fd5b50610130610679565b34801561020c57600080fd5b5061013061021b36600461090d565b610786565b34801561022c57600080fd5b506100f460025481565b34801561024257600080fd5b506100f460035481565b60408051808201909152600581526439b2b230b760d91b6020918201528251908301206000907f122a6f6e75b205b21c50015215d96e0f857292c0df3d2cf99e0b7f997dcad5b4016102a1575060025461038c565b60408051808201909152600381526239babb60e91b6020918201528351908401207fe10def15c2aa8e9b1408d2ff6e5f1a1c657251fefffe90d06d537884c9b10e08016102f1575060035461038c565b60408051808201909152600b81526a706572666f726d616e636560a81b6020918201528351908401207f19c236709c440d1237b3a1b2ff268eaddb0521f6614e2c8410f41ab876ad15cb01610349575060045461038c565b60405162461bcd60e51b815260206004820152601360248201527224b73b30b634b21031b0b91031b437b4b1b29760691b60448201526064015b60405180910390fd5b610396828261093c565b3410156103d95760405162461bcd60e51b81526020600482015260116024820152702737ba1032b737bab3b410333ab732399760791b6044820152606401610383565b6000600554116104205760405162461bcd60e51b815260206004820152601260248201527127379031b0b9399030bb30b4b630b136329760711b6044820152606401610383565b33600090815260076020526040902054156104895760405162461bcd60e51b8152602060048201526024808201527f596f752063616e206f6e6c792072656e74206f6e65206361722061742061207460448201526334b6b29760e11b6064820152608401610383565b33600090815260066020526040812080543492906104a8908490610959565b909155505033600090815260076020526040812083905560058054600192906104d290849061096c565b9091555050505050565b336000908152600760205260409020546105385760405162461bcd60e51b815260206004820152601c60248201527f596f7520686176656e27742072656e74656420616e7920636172732e000000006044820152606401610383565b3360009081526007602052604081205490600282116105655760015461055e908361093c565b905061061d565b336000908152600760205260409020546001036105ae5760025460028361058c919061096c565b610596919061093c565b6001546105a490600261093c565b61055e9190610959565b336000908152600760205260409020546002036105d35760035461058c60028461096c565b3360009081526007602052604090205460030361061d576004546105f860028461096c565b610602919061093c565b60015461061090600261093c565b61061a9190610959565b90505b3360009081526007602052604081208190556005805460019290610642908490610959565b9091555050604051339082156108fc029083906000818181858888f19350505050158015610674573d6000803e3d6000fd5b505050565b6000546001600160a01b031633146106eb5760405162461bcd60e51b815260206004820152602f60248201527f4f6e6c7920746865206f776e65722063616e207472616e73666572207468652060448201526e3932b73a30b6103130b630b731b29760891b6064820152608401610383565b47806107495760405162461bcd60e51b815260206004820152602760248201527f5468657265206973206e6f2072656e74616c2062616c616e636520746f20747260448201526630b739b332b91760c91b6064820152608401610383565b600080546040516001600160a01b039091169183156108fc02918491818181858888f19350505050158015610782573d6000803e3d6000fd5b5050565b6000546001600160a01b031633146107f85760405162461bcd60e51b815260206004820152602f60248201527f4f6e6c7920746865206f776e65722063616e20726573746f636b20746869732060448201526e3932b73a30b61039b2b93b34b1b29760891b6064820152608401610383565b806005600082825461080a9190610959565b909155505050565b60006020828403121561082457600080fd5b81356001600160a01b038116811461083b57600080fd5b9392505050565b634e487b7160e01b600052604160045260246000fd5b6000806040838503121561086b57600080fd5b823567ffffffffffffffff8082111561088357600080fd5b818501915085601f83011261089757600080fd5b8135818111156108a9576108a9610842565b604051601f8201601f19908116603f011681019083821181831017156108d1576108d1610842565b816040528281528860208487010111156108ea57600080fd5b826020860160208301376000602093820184015298969091013596505050505050565b60006020828403121561091f57600080fd5b5035919050565b634e487b7160e01b600052601160045260246000fd5b808202811582820484141761095357610953610926565b92915050565b8082018082111561095357610953610926565b818103818111156109535761095361092656fea26469706673582212200dc304e05c8de239cad22c6ac36b87f3bc091b11cee5f92411dc384a67d497eb64736f6c63430008130033",
  "immutableReferences": {},
  "source": "// SPDX-License-Identifier: MIT\r\n\r\npragma solidity ^0.8.19;\r\n\r\ncontract CarRentalService {\r\n    // State variables\r\n    address public owner;\r\n    uint public rentalPricePerDay;\r\n    uint public rentalPricePerDaySedan;\r\n    uint public rentalPricePerDaySuv;\r\n    uint public rentalPricePerDayPerformance;\r\n    uint public availableCars;\r\n\r\n    mapping (address => uint) public customerBalance;\r\n    mapping (address => uint) public rentedCars;\r\n\r\n    // Constructor\r\n    constructor(uint _availableCars) payable {\r\n        owner = msg.sender;\r\n        rentalPricePerDay = 1 ether + 1 ether;\r\n        rentalPricePerDaySedan = 2 ether;\r\n        rentalPricePerDaySuv = 3 ether;\r\n        rentalPricePerDayPerformance = 4 ether;\r\n        availableCars = _availableCars;\r\n    }\r\n\r\n    // Functions\r\n    function getRentalServiceBalance() public view returns (uint _balance) {\r\n        return address(this).balance;\r\n    }\r\n\r\n    function restock(uint _quantity) public {\r\n        require(msg.sender == owner, \"Only the owner can restock this rental service.\");\r\n        availableCars += _quantity;\r\n    }\r\n    function transferRentalBalanceToOwner() public {\r\n        require(msg.sender == owner, \"Only the owner can transfer the rental balance.\");\r\n\r\n        uint rentalBalance = address(this).balance;\r\n        require(rentalBalance > 0, \"There is no rental balance to transfer.\");\r\n\r\n        payable(owner).transfer(rentalBalance);\r\n    }\r\n\r\n    function rentCar_Day(string memory _carChoice, uint _rentDays) public payable {\r\n        uint carRentalPrice;\r\n        if (keccak256(bytes(_carChoice)) == keccak256(bytes(\"sedan\"))) {\r\n            carRentalPrice = rentalPricePerDaySedan;\r\n        } else if (keccak256(bytes(_carChoice)) == keccak256(bytes(\"suv\"))) {\r\n            carRentalPrice = rentalPricePerDaySuv;\r\n        } else if (keccak256(bytes(_carChoice)) == keccak256(bytes(\"performance\"))) {\r\n            carRentalPrice = rentalPricePerDayPerformance;\r\n        } else {\r\n            revert(\"Invalid car choice.\");\r\n        }\r\n        require(msg.value >= carRentalPrice * _rentDays, \"Not enough funds.\");\r\n        require(availableCars > 0, \"No cars available.\");\r\n        require(rentedCars[msg.sender] == 0, \"You can only rent one car at a time.\");\r\n\r\n        customerBalance[msg.sender] += msg.value;\r\n        rentedCars[msg.sender] = _rentDays;\r\n        availableCars -= 1;\r\n    }\r\n\r\n function returnCar() public {\r\n    require(rentedCars[msg.sender] > 0, \"You haven't rented any cars.\");\r\n    \r\n    uint daysRented = rentedCars[msg.sender];\r\n    uint refundAmount;\r\n    \r\n    if (daysRented <= 2) {\r\n        refundAmount = daysRented * rentalPricePerDay;\r\n    } else {\r\n        if (rentedCars[msg.sender] == 1) {\r\n            refundAmount = 2 * rentalPricePerDay + (daysRented - 2) * rentalPricePerDaySedan;\r\n        } else if (rentedCars[msg.sender] == 2) {\r\n            refundAmount = 2 * rentalPricePerDay + (daysRented - 2) * rentalPricePerDaySuv;\r\n        } else if (rentedCars[msg.sender] == 3) {\r\n            refundAmount = 2 * rentalPricePerDay + (daysRented - 2) * rentalPricePerDayPerformance;\r\n        }\r\n    }\r\n    \r\n    rentedCars[msg.sender] = 0;\r\n    availableCars += 1;\r\n\r\n    // transfer the refund amount from contract to the caller address\r\n    payable(msg.sender).transfer(refundAmount);\r\n}\r\n\r\n\r\n}\r\n",
  "sourcePath": "C:\\Users\\ADMIN\\Documents\\GitHub\\BlockchainCarRenta\\contracts\\CarRentalService.sol",
  "compiler": {
    "name": "solc",
    "version": "0.8.19+commit.7dd6d404.Emscripten.clang"
  },
  "schemaVersion": "3.4.14",
  "updatedAt": "2023-07-23T16:49:10.486Z",
  "networkType": "ethereum",
  "devdoc": {
    "kind": "dev",
    "methods": {},
    "version": 1
  },
  "userdoc": {
    "kind": "user",
    "methods": {},
    "version": 1
  }
}